{
  "contractName": "PokemonAttack",
  "abi": [
    {
      "inputs": [
        {
          "name": "initialAttack",
          "type": "string"
        }
      ],
      "payable": false,
      "stateMutability": "nonpayable",
      "type": "constructor",
      "signature": "constructor"
    },
    {
      "anonymous": false,
      "inputs": [
        {
          "indexed": false,
          "name": "_attack",
          "type": "string"
        }
      ],
      "name": "attackChangedEvent",
      "type": "event",
      "signature": "0x01e13aa90cd48360a5e0f59da43923276c4b61cbe6c46e01950197e0f240d63c"
    },
    {
      "constant": true,
      "inputs": [],
      "name": "currentAttack",
      "outputs": [
        {
          "name": "",
          "type": "string"
        }
      ],
      "payable": false,
      "stateMutability": "view",
      "type": "function",
      "signature": "0x5c9784ac"
    },
    {
      "constant": false,
      "inputs": [
        {
          "name": "_attack",
          "type": "string"
        }
      ],
      "name": "changeAttack",
      "outputs": [
        {
          "name": "",
          "type": "bool"
        }
      ],
      "payable": false,
      "stateMutability": "nonpayable",
      "type": "function",
      "signature": "0x7ae19347"
    }
  ],
  "bytecode": "0x608060405234801561001057600080fd5b506040516105363803806105368339810180604052602081101561003357600080fd5b81019080805164010000000081111561004b57600080fd5b8281019050602081018481111561006157600080fd5b815185600182028301116401000000008211171561007e57600080fd5b5050929190505050806000908051906020019061009c9291906100a3565b5050610148565b828054600181600116156101000203166002900490600052602060002090601f016020900481019282601f106100e457805160ff1916838001178555610112565b82800160010185558215610112579182015b828111156101115782518255916020019190600101906100f6565b5b50905061011f9190610123565b5090565b61014591905b80821115610141576000816000905550600101610129565b5090565b90565b6103df806101576000396000f3fe608060405234801561001057600080fd5b5060043610610053576000357c0100000000000000000000000000000000000000000000000000000000900480635c9784ac146100585780637ae19347146100db575b600080fd5b6100606101ae565b6040518080602001828103825283818151815260200191508051906020019080838360005b838110156100a0578082015181840152602081019050610085565b50505050905090810190601f1680156100cd5780820380516001836020036101000a031916815260200191505b509250505060405180910390f35b610194600480360360208110156100f157600080fd5b810190808035906020019064010000000081111561010e57600080fd5b82018360208201111561012057600080fd5b8035906020019184600183028401116401000000008311171561014257600080fd5b91908080601f016020809104026020016040519081016040528093929190818152602001838380828437600081840152601f19601f820116905080830192505050505050509192919290505050610250565b604051808215151515815260200191505060405180910390f35b606060008054600181600116156101000203166002900480601f0160208091040260200160405190810160405280929190818152602001828054600181600116156101000203166002900480156102465780601f1061021b57610100808354040283529160200191610246565b820191906000526020600020905b81548152906001019060200180831161022957829003601f168201915b5050505050905090565b6000816000908051906020019061026892919061030e565b507f01e13aa90cd48360a5e0f59da43923276c4b61cbe6c46e01950197e0f240d63c826040518080602001828103825283818151815260200191508051906020019080838360005b838110156102cb5780820151818401526020810190506102b0565b50505050905090810190601f1680156102f85780820380516001836020036101000a031916815260200191505b509250505060405180910390a160019050919050565b828054600181600116156101000203166002900490600052602060002090601f016020900481019282601f1061034f57805160ff191683800117855561037d565b8280016001018555821561037d579182015b8281111561037c578251825591602001919060010190610361565b5b50905061038a919061038e565b5090565b6103b091905b808211156103ac576000816000905550600101610394565b5090565b9056fea165627a7a723058209b0e7d919833daf7e2ff0a5d6c8ea4cc6b715c63ee9e1852b29adec27baaf03f0029",
  "source": "pragma solidity ^0.5.2;\r\n\r\ncontract PokemonAttack {\r\n    \r\n    //this declares a state variable which means it belongs to the contract's state\r\n    //This will give us a way to store a string value to the blockchain inside the smart contract.\r\n    string attack;\r\n    \r\n    constructor(string memory initialAttack) public {\r\n        attack = initialAttack;\r\n    }\r\n\r\n    // event\r\n    event attackChangedEvent (\r\n        string _attack\r\n    );\r\n\t\r\n    function currentAttack() public view returns(string memory) {\r\n        return attack;\r\n    }\t\r\n\t\r\n    function changeAttack(string memory _attack) public returns (bool){ \r\n        attack = _attack;\r\n        emit attackChangedEvent(_attack);\r\n\r\n        return true;\r\n    }\r\n\r\n   \r\n}\r\n",
  "sourcePath": "C:/AlexY/Programming/Blockchain/Ethereum/MySandBox/MyAngularDapp/contracts/PokemonAttack.sol",
  "compiler": {
    "name": "solc",
    "version": "0.5.2+commit.1df8f40c.Emscripten.clang"
  },
  "schemaVersion": "3.0.1",
  "updatedAt": "2019-02-18T03:10:05.571Z",
  "devdoc": {
    "methods": {}
  },
  "userdoc": {
    "methods": {}
  }
}